{
  "contractName": "RecordSystem",
  "abi": [
    {
      "inputs": [],
      "stateMutability": "nonpayable",
      "type": "constructor"
    },
    {
      "stateMutability": "payable",
      "type": "fallback",
      "payable": true
    },
    {
      "stateMutability": "payable",
      "type": "receive",
      "payable": true
    },
    {
      "inputs": [
        {
          "internalType": "string",
          "name": "pn",
          "type": "string"
        },
        {
          "internalType": "string",
          "name": "it",
          "type": "string"
        },
        {
          "internalType": "string",
          "name": "ot",
          "type": "string"
        },
        {
          "internalType": "string",
          "name": "f",
          "type": "string"
        }
      ],
      "name": "CreateRecord",
      "outputs": [],
      "stateMutability": "nonpayable",
      "type": "function"
    },
    {
      "inputs": [
        {
          "internalType": "uint256",
          "name": "recordId",
          "type": "uint256"
        }
      ],
      "name": "QueryARecord",
      "outputs": [
        {
          "components": [
            {
              "internalType": "string",
              "name": "PatientName",
              "type": "string"
            },
            {
              "internalType": "string",
              "name": "In_time",
              "type": "string"
            },
            {
              "internalType": "string",
              "name": "Out_time",
              "type": "string"
            },
            {
              "internalType": "string",
              "name": "Fee",
              "type": "string"
            },
            {
              "internalType": "uint256",
              "name": "recordId",
              "type": "uint256"
            }
          ],
          "internalType": "struct RecordSystem.Record",
          "name": "",
          "type": "tuple"
        }
      ],
      "stateMutability": "view",
      "type": "function",
      "constant": true
    },
    {
      "inputs": [],
      "name": "QueryAllRecord",
      "outputs": [
        {
          "components": [
            {
              "internalType": "string",
              "name": "PatientName",
              "type": "string"
            },
            {
              "internalType": "string",
              "name": "In_time",
              "type": "string"
            },
            {
              "internalType": "string",
              "name": "Out_time",
              "type": "string"
            },
            {
              "internalType": "string",
              "name": "Fee",
              "type": "string"
            },
            {
              "internalType": "uint256",
              "name": "recordId",
              "type": "uint256"
            }
          ],
          "internalType": "struct RecordSystem.Record[]",
          "name": "",
          "type": "tuple[]"
        }
      ],
      "stateMutability": "view",
      "type": "function",
      "constant": true
    },
    {
      "inputs": [
        {
          "internalType": "uint256",
          "name": "withdraw_amount",
          "type": "uint256"
        }
      ],
      "name": "withdraw",
      "outputs": [],
      "stateMutability": "nonpayable",
      "type": "function"
    },
    {
      "inputs": [
        {
          "internalType": "address payable",
          "name": "_to",
          "type": "address"
        },
        {
          "internalType": "uint256",
          "name": "_amount",
          "type": "uint256"
        }
      ],
      "name": "transfer",
      "outputs": [],
      "stateMutability": "nonpayable",
      "type": "function"
    }
  ],
  "bytecode": "0x60806040523480156200001157600080fd5b50336000806101000a81548173ffffffffffffffffffffffffffffffffffffffff021916908373ffffffffffffffffffffffffffffffffffffffff1602179055506200005c620001fe565b6040518060400160405280600481526020017f6a61636b0000000000000000000000000000000000000000000000000000000081525081600001819052506040518060400160405280600a81526020017f323030302e30312e30310000000000000000000000000000000000000000000081525081602001819052506040518060400160405280600a81526020017f323030302e30322e30320000000000000000000000000000000000000000000081525081604001819052506040518060400160405280600381526020017f35303000000000000000000000000000000000000000000000000000000000008152508160600181905250600181608001818152505060018190806001815401808255809150506001900390600052602060002090600502016000909190919091506000820151816000019081620001a29190620004a7565b506020820151816001019081620001ba9190620004a7565b506040820151816002019081620001d29190620004a7565b506060820151816003019081620001ea9190620004a7565b50608082015181600401555050506200058e565b6040518060a0016040528060608152602001606081526020016060815260200160608152602001600081525090565b600081519050919050565b7f4e487b7100000000000000000000000000000000000000000000000000000000600052604160045260246000fd5b7f4e487b7100000000000000000000000000000000000000000000000000000000600052602260045260246000fd5b60006002820490506001821680620002af57607f821691505b602082108103620002c557620002c462000267565b5b50919050565b60008190508160005260206000209050919050565b60006020601f8301049050919050565b600082821b905092915050565b6000600883026200032f7fffffffffffffffffffffffffffffffffffffffffffffffffffffffffffffffff82620002f0565b6200033b8683620002f0565b95508019841693508086168417925050509392505050565b6000819050919050565b6000819050919050565b600062000388620003826200037c8462000353565b6200035d565b62000353565b9050919050565b6000819050919050565b620003a48362000367565b620003bc620003b3826200038f565b848454620002fd565b825550505050565b600090565b620003d3620003c4565b620003e081848462000399565b505050565b5b818110156200040857620003fc600082620003c9565b600181019050620003e6565b5050565b601f82111562000457576200042181620002cb565b6200042c84620002e0565b810160208510156200043c578190505b620004546200044b85620002e0565b830182620003e5565b50505b505050565b600082821c905092915050565b60006200047c600019846008026200045c565b1980831691505092915050565b600062000497838362000469565b9150826002028217905092915050565b620004b2826200022d565b67ffffffffffffffff811115620004ce57620004cd62000238565b5b620004da825462000296565b620004e78282856200040c565b600060209050601f8311600181146200051f57600084156200050a578287015190505b62000516858262000489565b86555062000586565b601f1984166200052f86620002cb565b60005b82811015620005595784890151825560018201915060208501945060208101905062000532565b8683101562000579578489015162000575601f89168262000469565b8355505b6001600288020188555050505b505050505050565b611404806200059e6000396000f3fe60806040526004361061004e5760003560e01c80631572a18f146100575780632e1a7d4d146100945780636eea3ed9146100bd578063716c38d2146100e8578063a9059cbb1461011157610055565b3661005557005b005b34801561006357600080fd5b5061007e60048036038101906100799190610aaa565b61013a565b60405161008b9190610c01565b60405180910390f35b3480156100a057600080fd5b506100bb60048036038101906100b69190610aaa565b6103d3565b005b3480156100c957600080fd5b506100d26104c0565b6040516100df9190610d70565b60405180910390f35b3480156100f457600080fd5b5061010f600480360381019061010a9190610df7565b610771565b005b34801561011d57600080fd5b5061013860048036038101906101339190610f3e565b610962565b005b610142610a3b565b600180836101509190610fad565b8154811061016157610160610fe1565b5b90600052602060002090600502016040518060a001604052908160008201805461018a9061103f565b80601f01602080910402602001604051908101604052809291908181526020018280546101b69061103f565b80156102035780601f106101d857610100808354040283529160200191610203565b820191906000526020600020905b8154815290600101906020018083116101e657829003601f168201915b5050505050815260200160018201805461021c9061103f565b80601f01602080910402602001604051908101604052809291908181526020018280546102489061103f565b80156102955780601f1061026a57610100808354040283529160200191610295565b820191906000526020600020905b81548152906001019060200180831161027857829003601f168201915b505050505081526020016002820180546102ae9061103f565b80601f01602080910402602001604051908101604052809291908181526020018280546102da9061103f565b80156103275780601f106102fc57610100808354040283529160200191610327565b820191906000526020600020905b81548152906001019060200180831161030a57829003601f168201915b505050505081526020016003820180546103409061103f565b80601f016020809104026020016040519081016040528092919081815260200182805461036c9061103f565b80156103b95780601f1061038e576101008083540402835291602001916103b9565b820191906000526020600020905b81548152906001019060200180831161039c57829003601f168201915b505050505081526020016004820154815250509050919050565b60008054906101000a900473ffffffffffffffffffffffffffffffffffffffff1673ffffffffffffffffffffffffffffffffffffffff163373ffffffffffffffffffffffffffffffffffffffff1614610461576040517f08c379a0000000000000000000000000000000000000000000000000000000008152600401610458906110cd565b60405180910390fd5b67016345785d8a000081111561047657600080fd5b3373ffffffffffffffffffffffffffffffffffffffff166108fc829081150290604051600060405180830381858888f193505050501580156104bc573d6000803e3d6000fd5b5050565b60606001805480602002602001604051908101604052809291908181526020016000905b8282101561076857838290600052602060002090600502016040518060a00160405290816000820180546105179061103f565b80601f01602080910402602001604051908101604052809291908181526020018280546105439061103f565b80156105905780601f1061056557610100808354040283529160200191610590565b820191906000526020600020905b81548152906001019060200180831161057357829003601f168201915b505050505081526020016001820180546105a99061103f565b80601f01602080910402602001604051908101604052809291908181526020018280546105d59061103f565b80156106225780601f106105f757610100808354040283529160200191610622565b820191906000526020600020905b81548152906001019060200180831161060557829003601f168201915b5050505050815260200160028201805461063b9061103f565b80601f01602080910402602001604051908101604052809291908181526020018280546106679061103f565b80156106b45780601f10610689576101008083540402835291602001916106b4565b820191906000526020600020905b81548152906001019060200180831161069757829003601f168201915b505050505081526020016003820180546106cd9061103f565b80601f01602080910402602001604051908101604052809291908181526020018280546106f99061103f565b80156107465780601f1061071b57610100808354040283529160200191610746565b820191906000526020600020905b81548152906001019060200180831161072957829003601f168201915b50505050508152602001600482015481525050815260200190600101906104e4565b50505050905090565b610779610a3b565b88888080601f016020809104026020016040519081016040528093929190818152602001838380828437600081840152601f19601f82011690508083019250505050505050816000018190525086868080601f016020809104026020016040519081016040528093929190818152602001838380828437600081840152601f19601f82011690508083019250505050505050816020018190525084848080601f016020809104026020016040519081016040528093929190818152602001838380828437600081840152601f19601f82011690508083019250505050505050816040018190525082828080601f016020809104026020016040519081016040528093929190818152602001838380828437600081840152601f19601f820116905080830192505050505050508160600181905250600180805490506108be91906110ed565b8160800181815250506001819080600181540180825580915050600190039060005260206000209060050201600090919091909150600082015181600001908161090891906112fc565b50602082015181600101908161091e91906112fc565b50604082015181600201908161093491906112fc565b50606082015181600301908161094a91906112fc565b50608082015181600401555050505050505050505050565b60008054906101000a900473ffffffffffffffffffffffffffffffffffffffff1673ffffffffffffffffffffffffffffffffffffffff163373ffffffffffffffffffffffffffffffffffffffff16146109f0576040517f08c379a00000000000000000000000000000000000000000000000000000000081526004016109e7906110cd565b60405180910390fd5b8173ffffffffffffffffffffffffffffffffffffffff166108fc829081150290604051600060405180830381858888f19350505050158015610a36573d6000803e3d6000fd5b505050565b6040518060a0016040528060608152602001606081526020016060815260200160608152602001600081525090565b600080fd5b600080fd5b6000819050919050565b610a8781610a74565b8114610a9257600080fd5b50565b600081359050610aa481610a7e565b92915050565b600060208284031215610ac057610abf610a6a565b5b6000610ace84828501610a95565b91505092915050565b600081519050919050565b600082825260208201905092915050565b60005b83811015610b11578082015181840152602081019050610af6565b60008484015250505050565b6000601f19601f8301169050919050565b6000610b3982610ad7565b610b438185610ae2565b9350610b53818560208601610af3565b610b5c81610b1d565b840191505092915050565b610b7081610a74565b82525050565b600060a0830160008301518482036000860152610b938282610b2e565b91505060208301518482036020860152610bad8282610b2e565b91505060408301518482036040860152610bc78282610b2e565b91505060608301518482036060860152610be18282610b2e565b9150506080830151610bf66080860182610b67565b508091505092915050565b60006020820190508181036000830152610c1b8184610b76565b905092915050565b600081519050919050565b600082825260208201905092915050565b6000819050602082019050919050565b600060a0830160008301518482036000860152610c6c8282610b2e565b91505060208301518482036020860152610c868282610b2e565b91505060408301518482036040860152610ca08282610b2e565b91505060608301518482036060860152610cba8282610b2e565b9150506080830151610ccf6080860182610b67565b508091505092915050565b6000610ce68383610c4f565b905092915050565b6000602082019050919050565b6000610d0682610c23565b610d108185610c2e565b935083602082028501610d2285610c3f565b8060005b85811015610d5e5784840389528151610d3f8582610cda565b9450610d4a83610cee565b925060208a01995050600181019050610d26565b50829750879550505050505092915050565b60006020820190508181036000830152610d8a8184610cfb565b905092915050565b600080fd5b600080fd5b600080fd5b60008083601f840112610db757610db6610d92565b5b8235905067ffffffffffffffff811115610dd457610dd3610d97565b5b602083019150836001820283011115610df057610def610d9c565b5b9250929050565b6000806000806000806000806080898b031215610e1757610e16610a6a565b5b600089013567ffffffffffffffff811115610e3557610e34610a6f565b5b610e418b828c01610da1565b9850985050602089013567ffffffffffffffff811115610e6457610e63610a6f565b5b610e708b828c01610da1565b9650965050604089013567ffffffffffffffff811115610e9357610e92610a6f565b5b610e9f8b828c01610da1565b9450945050606089013567ffffffffffffffff811115610ec257610ec1610a6f565b5b610ece8b828c01610da1565b92509250509295985092959890939650565b600073ffffffffffffffffffffffffffffffffffffffff82169050919050565b6000610f0b82610ee0565b9050919050565b610f1b81610f00565b8114610f2657600080fd5b50565b600081359050610f3881610f12565b92915050565b60008060408385031215610f5557610f54610a6a565b5b6000610f6385828601610f29565b9250506020610f7485828601610a95565b9150509250929050565b7f4e487b7100000000000000000000000000000000000000000000000000000000600052601160045260246000fd5b6000610fb882610a74565b9150610fc383610a74565b9250828203905081811115610fdb57610fda610f7e565b5b92915050565b7f4e487b7100000000000000000000000000000000000000000000000000000000600052603260045260246000fd5b7f4e487b7100000000000000000000000000000000000000000000000000000000600052602260045260246000fd5b6000600282049050600182168061105757607f821691505b60208210810361106a57611069611010565b5b50919050565b600082825260208201905092915050565b7f4e6f74204f776e65720000000000000000000000000000000000000000000000600082015250565b60006110b7600983611070565b91506110c282611081565b602082019050919050565b600060208201905081810360008301526110e6816110aa565b9050919050565b60006110f882610a74565b915061110383610a74565b925082820190508082111561111b5761111a610f7e565b5b92915050565b7f4e487b7100000000000000000000000000000000000000000000000000000000600052604160045260246000fd5b60008190508160005260206000209050919050565b60006020601f8301049050919050565b600082821b905092915050565b6000600883026111b27fffffffffffffffffffffffffffffffffffffffffffffffffffffffffffffffff82611175565b6111bc8683611175565b95508019841693508086168417925050509392505050565b6000819050919050565b60006111f96111f46111ef84610a74565b6111d4565b610a74565b9050919050565b6000819050919050565b611213836111de565b61122761121f82611200565b848454611182565b825550505050565b600090565b61123c61122f565b61124781848461120a565b505050565b5b8181101561126b57611260600082611234565b60018101905061124d565b5050565b601f8211156112b05761128181611150565b61128a84611165565b81016020851015611299578190505b6112ad6112a585611165565b83018261124c565b50505b505050565b600082821c905092915050565b60006112d3600019846008026112b5565b1980831691505092915050565b60006112ec83836112c2565b9150826002028217905092915050565b61130582610ad7565b67ffffffffffffffff81111561131e5761131d611121565b5b611328825461103f565b61133382828561126f565b600060209050601f8311600181146113665760008415611354578287015190505b61135e85826112e0565b8655506113c6565b601f19841661137486611150565b60005b8281101561139c57848901518255600182019150602085019450602081019050611377565b868310156113b957848901516113b5601f8916826112c2565b8355505b6001600288020188555050505b50505050505056fea2646970667358221220bc9fcebb34fa7ebbdd93ec67330846d22459114312c1f034cae5577b3cb1f0c264736f6c63430008100033",
  "immutableReferences": {},
  "source": "// SPDX-License-Identifier: MIT\npragma solidity ^0.8.15;\n// Our first contract is a faucet\ncontract RecordSystem{\n address Owner;\n\n  struct Record{\n        string PatientName;\n        string In_time;\n        string Out_time;\n        string Fee;\n        uint recordId;\n    }\n\n    Record[] records;\n    \n constructor () {\n Owner = msg.sender;\n Record memory record;\n record.PatientName='jack';\nrecord.In_time='2000.01.01';\nrecord.Out_time='2000.02.02';\nrecord.Fee='500';\nrecord.recordId = 1;\n records.push(record); \n \n }\n\n\n \n modifier onlyOwner {\n require(msg.sender == Owner, \"Not Owner\");\n _;\n }\n function CreateRecord(string calldata pn,string calldata it,string calldata ot,string calldata f) public {\n    Record memory temp;\n    temp.PatientName = pn;\n    temp.In_time = it;\n    temp.Out_time = ot;\n    temp.Fee = f;\n    temp.recordId = records.length + 1;\n    records.push(temp);\n }\n \n function QueryARecord(uint recordId) public view returns(Record memory){\n    return records[recordId-1];\n }\n\n function QueryAllRecord() public view returns(Record[] memory){\n    return records;\n }\n // Give out ether to anyone who asks\n \n \n function withdraw(uint withdraw_amount) public onlyOwner {\n // Limit withdrawal amount\n require(withdraw_amount <= 100000000000000000);\n // Send the amount to the address that request it\n payable(msg.sender).transfer(withdraw_amount);\n }\n\n\n\n function transfer(address payable _to, uint _amount) public onlyOwner {\n _to.transfer(_amount);\n }\n receive() external payable {}\n fallback() external payable {}\n}\n",
  "sourcePath": "/home/polyubt/recordsystem/truffle/contracts/RecordSystem.sol",
  "compiler": {
    "name": "solc",
    "version": "0.8.16+commit.07a7930e.Emscripten.clang"
  },
  "schemaVersion": "3.4.9",
  "updatedAt": "2022-11-27T15:53:55.641Z",
  "networkType": "ethereum",
  "devdoc": {
    "kind": "dev",
    "methods": {},
    "version": 1
  },
  "userdoc": {
    "kind": "user",
    "methods": {},
    "version": 1
  }
}